{
  "contractName": "LendingProtocol",
  "abi": [
    {
      "inputs": [],
      "stateMutability": "payable",
      "type": "constructor",
      "payable": true
    },
    {
      "inputs": [
        {
          "internalType": "address",
          "name": "",
          "type": "address"
        }
      ],
      "name": "balances",
      "outputs": [
        {
          "internalType": "uint256",
          "name": "",
          "type": "uint256"
        }
      ],
      "stateMutability": "view",
      "type": "function",
      "constant": true
    },
    {
      "inputs": [
        {
          "internalType": "address",
          "name": "",
          "type": "address"
        }
      ],
      "name": "collateral",
      "outputs": [
        {
          "internalType": "uint256",
          "name": "",
          "type": "uint256"
        }
      ],
      "stateMutability": "view",
      "type": "function",
      "constant": true
    },
    {
      "inputs": [],
      "name": "totalLent",
      "outputs": [
        {
          "internalType": "uint256",
          "name": "",
          "type": "uint256"
        }
      ],
      "stateMutability": "view",
      "type": "function",
      "constant": true
    },
    {
      "inputs": [],
      "name": "getContractBalance",
      "outputs": [
        {
          "internalType": "uint256",
          "name": "",
          "type": "uint256"
        }
      ],
      "stateMutability": "view",
      "type": "function",
      "constant": true
    },
    {
      "inputs": [],
      "name": "deposit",
      "outputs": [],
      "stateMutability": "payable",
      "type": "function",
      "payable": true
    },
    {
      "inputs": [
        {
          "internalType": "uint256",
          "name": "amount",
          "type": "uint256"
        }
      ],
      "name": "borrow",
      "outputs": [],
      "stateMutability": "nonpayable",
      "type": "function"
    },
    {
      "inputs": [],
      "name": "repay",
      "outputs": [],
      "stateMutability": "payable",
      "type": "function",
      "payable": true
    },
    {
      "inputs": [],
      "name": "provideCollateral",
      "outputs": [],
      "stateMutability": "payable",
      "type": "function",
      "payable": true
    },
    {
      "inputs": [
        {
          "internalType": "uint256",
          "name": "amount",
          "type": "uint256"
        }
      ],
      "name": "withdrawCollateral",
      "outputs": [],
      "stateMutability": "nonpayable",
      "type": "function"
    }
  ],
  "bytecode": "0x608060405234600260008282546100169190610022565b925050819055506100b1565b600061002d82610078565b915061003883610078565b9250827fffffffffffffffffffffffffffffffffffffffffffffffffffffffffffffffff0382111561006d5761006c610082565b5b828201905092915050565b6000819050919050565b7f4e487b7100000000000000000000000000000000000000000000000000000000600052601160045260246000fd5b610c93806100c06000396000f3fe6080604052600436106100865760003560e01c80636d7c218b116100595780636d7c218b146101055780636f9fb98a14610130578063a5fdc5de1461015b578063c5ebeaec14610198578063d0e30db0146101c157610086565b806327e235e31461008b578063402d8883146100c85780635a7882d5146100d25780636112fe2e146100dc575b600080fd5b34801561009757600080fd5b506100b260048036038101906100ad919061080d565b6101cb565b6040516100bf9190610b03565b60405180910390f35b6100d06101e3565b005b6100da6102d4565b005b3480156100e857600080fd5b5061010360048036038101906100fe9190610836565b61036f565b005b34801561011157600080fd5b5061011a610491565b6040516101279190610b03565b60405180910390f35b34801561013c57600080fd5b50610145610497565b6040516101529190610b03565b60405180910390f35b34801561016757600080fd5b50610182600480360381019061017d919061080d565b61049f565b60405161018f9190610b03565b60405180910390f35b3480156101a457600080fd5b506101bf60048036038101906101ba9190610836565b6104b7565b005b6101c9610773565b005b60006020528060005260406000206000915090505481565b60008060003373ffffffffffffffffffffffffffffffffffffffff1673ffffffffffffffffffffffffffffffffffffffff1681526020019081526020016000205411610264576040517f08c379a000000000000000000000000000000000000000000000000000000000815260040161025b90610a43565b60405180910390fd5b346000803373ffffffffffffffffffffffffffffffffffffffff1673ffffffffffffffffffffffffffffffffffffffff16815260200190815260200160002060008282546102b29190610b90565b9250508190555034600260008282546102cb9190610b3a565b92505081905550565b60003411610317576040517f08c379a000000000000000000000000000000000000000000000000000000000815260040161030e90610aa3565b60405180910390fd5b34600160003373ffffffffffffffffffffffffffffffffffffffff1673ffffffffffffffffffffffffffffffffffffffff16815260200190815260200160002060008282546103669190610b3a565b92505081905550565b80600160003373ffffffffffffffffffffffffffffffffffffffff1673ffffffffffffffffffffffffffffffffffffffff1681526020019081526020016000205410156103f1576040517f08c379a00000000000000000000000000000000000000000000000000000000081526004016103e890610ae3565b60405180910390fd5b80600160003373ffffffffffffffffffffffffffffffffffffffff1673ffffffffffffffffffffffffffffffffffffffff16815260200190815260200160002060008282546104409190610b90565b925050819055503373ffffffffffffffffffffffffffffffffffffffff166108fc829081150290604051600060405180830381858888f1935050505015801561048d573d6000803e3d6000fd5b5050565b60025481565b600047905090565b60016020528060005260406000206000915090505481565b6002548111156104fc576040517f08c379a00000000000000000000000000000000000000000000000000000000081526004016104f390610a83565b60405180910390fd5b6000600160003373ffffffffffffffffffffffffffffffffffffffff1673ffffffffffffffffffffffffffffffffffffffff168152602001908152602001600020541161057e576040517f08c379a000000000000000000000000000000000000000000000000000000000815260040161057590610ac3565b60405180910390fd5b80600160003373ffffffffffffffffffffffffffffffffffffffff1673ffffffffffffffffffffffffffffffffffffffff168152602001908152602001600020541015610600576040517f08c379a00000000000000000000000000000000000000000000000000000000081526004016105f790610ae3565b60405180910390fd5b806000803373ffffffffffffffffffffffffffffffffffffffff1673ffffffffffffffffffffffffffffffffffffffff168152602001908152602001600020600082825461064e9190610b3a565b9250508190555080600260008282546106679190610b90565b9250508190555060003373ffffffffffffffffffffffffffffffffffffffff168260405161069490610a2e565b60006040518083038185875af1925050503d80600081146106d1576040519150601f19603f3d011682016040523d82523d6000602084013e6106d6565b606091505b505090508061071a576040517f08c379a000000000000000000000000000000000000000000000000000000000815260040161071190610a63565b60405180910390fd5b816000803373ffffffffffffffffffffffffffffffffffffffff1673ffffffffffffffffffffffffffffffffffffffff16815260200190815260200160002060008282546107689190610b90565b925050819055505050565b346000803373ffffffffffffffffffffffffffffffffffffffff1673ffffffffffffffffffffffffffffffffffffffff16815260200190815260200160002060008282546107c19190610b3a565b9250508190555034600260008282546107da9190610b3a565b92505081905550565b6000813590506107f281610c2f565b92915050565b60008135905061080781610c46565b92915050565b60006020828403121561081f57600080fd5b600061082d848285016107e3565b91505092915050565b60006020828403121561084857600080fd5b6000610856848285016107f8565b91505092915050565b600061086c601083610b29565b91507f4e6f206c6f616e20746f207265706179000000000000000000000000000000006000830152602082019050919050565b60006108ac600f83610b29565b91507f5472616e73666572206661696c656400000000000000000000000000000000006000830152602082019050919050565b60006108ec601283610b29565b91507f496e73756666696369656e742066756e647300000000000000000000000000006000830152602082019050919050565b600061092c602183610b29565b91507f436f6c6c61746572616c206d7573742062652067726561746572207468616e2060008301527f30000000000000000000000000000000000000000000000000000000000000006020830152604082019050919050565b6000610992601683610b29565b91507f4e6f20636f6c6c61746572616c2070726f7669646564000000000000000000006000830152602082019050919050565b60006109d2600083610b1e565b9150600082019050919050565b60006109ec601783610b29565b91507f496e73756666696369656e7420636f6c6c61746572616c0000000000000000006000830152602082019050919050565b610a2881610bf6565b82525050565b6000610a39826109c5565b9150819050919050565b60006020820190508181036000830152610a5c8161085f565b9050919050565b60006020820190508181036000830152610a7c8161089f565b9050919050565b60006020820190508181036000830152610a9c816108df565b9050919050565b60006020820190508181036000830152610abc8161091f565b9050919050565b60006020820190508181036000830152610adc81610985565b9050919050565b60006020820190508181036000830152610afc816109df565b9050919050565b6000602082019050610b186000830184610a1f565b92915050565b600081905092915050565b600082825260208201905092915050565b6000610b4582610bf6565b9150610b5083610bf6565b9250827fffffffffffffffffffffffffffffffffffffffffffffffffffffffffffffffff03821115610b8557610b84610c00565b5b828201905092915050565b6000610b9b82610bf6565b9150610ba683610bf6565b925082821015610bb957610bb8610c00565b5b828203905092915050565b6000610bcf82610bd6565b9050919050565b600073ffffffffffffffffffffffffffffffffffffffff82169050919050565b6000819050919050565b7f4e487b7100000000000000000000000000000000000000000000000000000000600052601160045260246000fd5b610c3881610bc4565b8114610c4357600080fd5b50565b610c4f81610bf6565b8114610c5a57600080fd5b5056fea2646970667358221220a7a430c31bd3ce505511d030a1198d6aa9b9b6cac2cf055a4f5fc50b4333e96264736f6c63430008000033",
  "immutableReferences": {},
  "source": "// SPDX-License-Identifier: MIT\r\npragma solidity ^0.8.0;\r\n\r\ncontract LendingProtocol {\r\n    mapping(address => uint) public balances;\r\n    mapping(address => uint) public collateral;\r\n    uint public totalLent;\r\n\r\n    // Constructor that is payable to accept Ether during deployment\r\n    constructor() payable {\r\n        totalLent += msg.value;  // Optionally initialize the contract with sent Ether\r\n    }\r\n    // Function to get the contract's Ether balance\r\n    function getContractBalance() public view returns (uint) {\r\n    return address(this).balance;\r\n}\r\n\r\n    // Deposit function to add funds to the contract\r\n    function deposit() public payable {\r\n        balances[msg.sender] += msg.value;\r\n        totalLent += msg.value;\r\n    }\r\n\r\n    // Borrow function with collateral check\r\n    function borrow(uint amount) public {\r\n        require(amount <= totalLent, \"Insufficient funds\");\r\n        require(collateral[msg.sender] > 0, \"No collateral provided\");\r\n\r\n        // Ensure borrower has provided collateral greater than or equal to the amount borrowed\r\n        require(collateral[msg.sender] >= amount, \"Insufficient collateral\");\r\n\r\n        // Transfer funds to borrower\r\n        balances[msg.sender] += amount;\r\n        totalLent -= amount;\r\n\r\n        // Transfer the borrowed amount (safe call)\r\n        (bool sent, ) = msg.sender.call{value: amount}(\"\");\r\n        require(sent, \"Transfer failed\");\r\n\r\n        // Update the balance after successful transfer\r\n        balances[msg.sender] -= amount;\r\n    }\r\n\r\n    // Repay function to return borrowed funds\r\n    function repay() public payable {\r\n        require(balances[msg.sender] > 0, \"No loan to repay\");\r\n\r\n        balances[msg.sender] -= msg.value;\r\n        totalLent += msg.value;\r\n    }\r\n\r\n    // Function to provide collateral\r\n    function provideCollateral() public payable {\r\n        require(msg.value > 0, \"Collateral must be greater than 0\");\r\n        collateral[msg.sender] += msg.value;\r\n    }\r\n\r\n    // Function to withdraw collateral\r\n    function withdrawCollateral(uint amount) public {\r\n        require(collateral[msg.sender] >= amount, \"Insufficient collateral\");\r\n        collateral[msg.sender] -= amount;\r\n        payable(msg.sender).transfer(amount);\r\n    }\r\n}\r\n",
  "sourcePath": "C:\\Users\\ashis\\Desktop\\LP\\contracts\\LendingProtocol.sol",
  "compiler": {
    "name": "solc",
    "version": "0.8.0+commit.c7dfd78e.Emscripten.clang"
  },
  "schemaVersion": "3.4.16",
  "updatedAt": "2024-11-23T12:56:20.596Z",
  "networkType": "ethereum",
  "devdoc": {
    "kind": "dev",
    "methods": {},
    "version": 1
  },
  "userdoc": {
    "kind": "user",
    "methods": {},
    "version": 1
  }
}